{
  "_format": "hh3-artifact-1",
  "contractName": "GuideVerification",
  "sourceName": "contracts/GuideVerification.sol",
  "abi": [
    {
      "inputs": [],
      "stateMutability": "nonpayable",
      "type": "constructor"
    },
    {
      "anonymous": false,
      "inputs": [
        {
          "indexed": false,
          "internalType": "address",
          "name": "guide",
          "type": "address"
        }
      ],
      "name": "GuideVerified",
      "type": "event"
    },
    {
      "inputs": [],
      "name": "admin",
      "outputs": [
        {
          "internalType": "address",
          "name": "",
          "type": "address"
        }
      ],
      "stateMutability": "view",
      "type": "function"
    },
    {
      "inputs": [
        {
          "internalType": "address",
          "name": "_guide",
          "type": "address"
        }
      ],
      "name": "isVerified",
      "outputs": [
        {
          "internalType": "bool",
          "name": "",
          "type": "bool"
        }
      ],
      "stateMutability": "view",
      "type": "function"
    },
    {
      "inputs": [
        {
          "internalType": "address",
          "name": "",
          "type": "address"
        }
      ],
      "name": "verifiedGuides",
      "outputs": [
        {
          "internalType": "bool",
          "name": "",
          "type": "bool"
        }
      ],
      "stateMutability": "view",
      "type": "function"
    },
    {
      "inputs": [
        {
          "internalType": "address",
          "name": "_guide",
          "type": "address"
        }
      ],
      "name": "verifyGuide",
      "outputs": [],
      "stateMutability": "nonpayable",
      "type": "function"
    }
  ],
  "bytecode": "0x6080604052348015600e575f5ffd5b505f80546001600160a01b031916331790556102098061002d5f395ff3fe608060405234801561000f575f5ffd5b506004361061004a575f3560e01c80639e9187231461004e578063a4a04b2614610085578063b9209e331461009a578063f851a440146100c5575b5f5ffd5b61007061005c3660046101a6565b60016020525f908152604090205460ff1681565b60405190151581526020015b60405180910390f35b6100986100933660046101a6565b6100ef565b005b6100706100a83660046101a6565b6001600160a01b03165f9081526001602052604090205460ff1690565b5f546100d7906001600160a01b031681565b6040516001600160a01b03909116815260200161007c565b5f546001600160a01b0316331461014c5760405162461bcd60e51b815260206004820152601c60248201527f4f6e6c792061646d696e2063616e207665726966792067756964657300000000604482015260640160405180910390fd5b6001600160a01b0381165f81815260016020818152604092839020805460ff191690921790915590519182527f4565b863a36e674804403c06808e3f2a03cb27b6ad6bbf51f410203665fd1f7d910160405180910390a150565b5f602082840312156101b6575f5ffd5b81356001600160a01b03811681146101cc575f5ffd5b939250505056fea2646970667358221220cdc5c1d28172208cddc27b795a205ea6e04182ac805e8dc5a4bc87a603d2b8ad64736f6c634300081c0033",
  "linkReferences": {},
  "deployedLinkReferences": {},
  "immutableReferences": {},
  "inputSourceName": "project/contracts/GuideVerification.sol",
  "buildInfoId": "solc-0_8_28-5c323f21097ceae1bd30e7681053cc94578766f1"
}